{
  "contractName": "KhananiToken",
  "abi": [
    {
      "constant": true,
      "inputs": [],
      "name": "totalSupply",
      "outputs": [
        {
          "name": "",
          "type": "uint256"
        }
      ],
      "payable": false,
      "stateMutability": "view",
      "type": "function"
    },
    {
      "inputs": [],
      "payable": false,
      "stateMutability": "nonpayable",
      "type": "constructor"
    }
  ],
  "bytecode": "0x608060405234801561001057600080fd5b50620f4240600081905550609e806100296000396000f300608060405260043610603f576000357c0100000000000000000000000000000000000000000000000000000000900463ffffffff16806318160ddd146044575b600080fd5b348015604f57600080fd5b506056606c565b6040518082815260200191505060405180910390f35b600054815600a165627a7a723058204a6fabc89f90eabf0e01dfc404d7fd82477e3039918b0e54694b986d1337cbec0029",
  "source": "pragma solidity ^0.4.24;\n\ncontract KhananiToken {\n    //Constructor\n    //Set the total number of Token\n    //Read the total number of token\n    uint256 public totalSupply;\n\n    constructor() public {\n        totalSupply = 1000000;\n    }\n    \n}",
  "sourcePath": "/home/khanani92/Development/blockchain/Own-CryptoCurrency-ERC20-ICO/contracts/KhananiToken.sol",
  "compiler": {
    "name": "solc",
    "version": "0.4.24+commit.e67f0147.Emscripten.clang"
  },
  "schemaVersion": "2.0.1",
  "updatedAt": "2018-10-21T14:45:39.847Z"
}